{
  "contractName": "Orderable",
  "abi": [
    {
      "constant": true,
      "inputs": [
        {
          "name": "orderId",
          "type": "string"
        }
      ],
      "name": "getOrderItemId",
      "outputs": [
        {
          "name": "",
          "type": "string"
        }
      ],
      "payable": false,
      "stateMutability": "view",
      "type": "function"
    },
    {
      "constant": true,
      "inputs": [
        {
          "name": "orderId",
          "type": "string"
        }
      ],
      "name": "isActiveOrder",
      "outputs": [
        {
          "name": "",
          "type": "bool"
        }
      ],
      "payable": false,
      "stateMutability": "view",
      "type": "function"
    },
    {
      "constant": true,
      "inputs": [
        {
          "name": "orderId",
          "type": "string"
        },
        {
          "name": "addr",
          "type": "address"
        }
      ],
      "name": "isRecipient",
      "outputs": [
        {
          "name": "",
          "type": "bool"
        }
      ],
      "payable": false,
      "stateMutability": "view",
      "type": "function"
    },
    {
      "constant": false,
      "inputs": [
        {
          "name": "orderId",
          "type": "string"
        },
        {
          "name": "itemId",
          "type": "string"
        },
        {
          "name": "from",
          "type": "address"
        },
        {
          "name": "to",
          "type": "address"
        },
        {
          "name": "amount",
          "type": "uint256"
        }
      ],
      "name": "placeOrder",
      "outputs": [],
      "payable": false,
      "stateMutability": "nonpayable",
      "type": "function"
    },
    {
      "constant": true,
      "inputs": [
        {
          "name": "orderId",
          "type": "string"
        }
      ],
      "name": "getOrderFromAndTo",
      "outputs": [
        {
          "name": "from",
          "type": "address"
        },
        {
          "name": "to",
          "type": "address"
        }
      ],
      "payable": false,
      "stateMutability": "view",
      "type": "function"
    }
  ],
  "bytecode": "0x6060604052341561000f57600080fd5b6104798061001e6000396000f30060606040526004361061006d576000357c0100000000000000000000000000000000000000000000000000000000900463ffffffff16806333d4f3f91461007257806374261f0c14610148578063a1f02824146101bd578063c380f06814610251578063fb84160c14610338575b600080fd5b341561007d57600080fd5b6100cd600480803590602001908201803590602001908080601f01602080910402602001604051908101604052809392919081815260200183838082843782019150505050505091905050610408565b6040518080602001828103825283818151815260200191508051906020019080838360005b8381101561010d5780820151818401526020810190506100f2565b50505050905090810190601f16801561013a5780820380516001836020036101000a031916815260200191505b509250505060405180910390f35b341561015357600080fd5b6101a3600480803590602001908201803590602001908080601f01602080910402602001604051908101604052809392919081815260200183838082843782019150505050505091905050610415565b604051808215151515815260200191505060405180910390f35b34156101c857600080fd5b610237600480803590602001908201803590602001908080601f0160208091040260200160405190810160405280939291908181526020018383808284378201915050505050509190803573ffffffffffffffffffffffffffffffffffffffff1690602001909190505061041f565b604051808215151515815260200191505060405180910390f35b341561025c57600080fd5b610336600480803590602001908201803590602001908080601f0160208091040260200160405190810160405280939291908181526020018383808284378201915050505050509190803590602001908201803590602001908080601f0160208091040260200160405190810160405280939291908181526020018383808284378201915050505050509190803573ffffffffffffffffffffffffffffffffffffffff1690602001909190803573ffffffffffffffffffffffffffffffffffffffff1690602001909190803590602001909190505061042a565b005b341561034357600080fd5b610393600480803590602001908201803590602001908080601f01602080910402602001604051908101604052809392919081815260200183838082843782019150505050505091905050610431565b604051808373ffffffffffffffffffffffffffffffffffffffff1673ffffffffffffffffffffffffffffffffffffffff1681526020018273ffffffffffffffffffffffffffffffffffffffff1673ffffffffffffffffffffffffffffffffffffffff1681526020019250505060405180910390f35b610410610439565b919050565b6000809050919050565b600080905092915050565b5050505050565b600080915091565b6020604051908101604052806000815250905600a165627a7a72305820596859d55b45479ef0a4f07bea71a5a7c491b70a8c03c82ecbcbd00dda5305560029",
  "source": "pragma solidity ^0.4.11;\n\ncontract Orderable {\n    \n    enum OrderStatus { Active, Complete }\n    struct Order {\n        string orderId;\n        string itemId;\n        address from;\n        address to;\n        uint amount;\n        OrderStatus status;\n    }\n    \n    mapping(string => Order) orders;\n    \n    function placeOrder(string orderId, string itemId, address from, address to, uint amount) public {\n        //add to orders\n    }\n    \n    function isActiveOrder(string orderId) constant public returns (bool) {\n        //exists in orders\n        \n        //isActive order\n        \n        return false;\n    }\n    \n    function isRecipient(string orderId, address addr) \n    constant \n    public \n    returns (bool){\n        //is recipient\n        return false;\n    }\n\n    function getOrderFromAndTo(string orderId) \n    constant \n    public \n    returns (address from, address to) {\n        //return from and to\n    }\n    \n    function getOrderItemId(string orderId)\n    constant\n    public\n    returns (string) {\n        //order itemid\n    }\n\n    function settleOrder(string orderId) \n    internal {\n        //check contract has sufficient balance\n        \n        //transfer amount\n    \n        //delete order\n\n    }\n}",
  "sourcePath": "/home/ketan/Desktop/shopd/contracts/Orderable.sol",
  "compiler": {
    "name": "solc",
    "version": "0.4.18+commit.9cf6e910.Emscripten.clang"
  },
  "schemaVersion": "1.0.1",
  "updatedAt": "2017-12-16T23:25:41.653Z"
}