{
  "contractName": "Shippable",
  "abi": [
    {
      "constant": false,
      "inputs": [
        {
          "name": "shipper",
          "type": "address"
        }
      ],
      "name": "addShipper",
      "outputs": [],
      "payable": false,
      "stateMutability": "nonpayable",
      "type": "function"
    },
    {
      "constant": true,
      "inputs": [
        {
          "name": "orderId",
          "type": "string"
        }
      ],
      "name": "getShipmentStatus",
      "outputs": [
        {
          "name": "",
          "type": "uint8"
        }
      ],
      "payable": false,
      "stateMutability": "view",
      "type": "function"
    },
    {
      "constant": true,
      "inputs": [
        {
          "name": "orderId",
          "type": "string"
        }
      ],
      "name": "getShipper",
      "outputs": [
        {
          "name": "",
          "type": "address"
        }
      ],
      "payable": false,
      "stateMutability": "view",
      "type": "function"
    },
    {
      "constant": true,
      "inputs": [
        {
          "name": "orderId",
          "type": "string"
        }
      ],
      "name": "isInTransit",
      "outputs": [
        {
          "name": "",
          "type": "bool"
        }
      ],
      "payable": false,
      "stateMutability": "view",
      "type": "function"
    },
    {
      "constant": false,
      "inputs": [
        {
          "name": "orderId",
          "type": "string"
        },
        {
          "name": "itemId",
          "type": "string"
        },
        {
          "name": "from",
          "type": "address"
        },
        {
          "name": "to",
          "type": "address"
        }
      ],
      "name": "ship",
      "outputs": [],
      "payable": false,
      "stateMutability": "nonpayable",
      "type": "function"
    },
    {
      "constant": true,
      "inputs": [
        {
          "name": "shipper",
          "type": "address"
        }
      ],
      "name": "isShipper",
      "outputs": [
        {
          "name": "",
          "type": "bool"
        }
      ],
      "payable": false,
      "stateMutability": "view",
      "type": "function"
    },
    {
      "constant": false,
      "inputs": [
        {
          "name": "orderId",
          "type": "string"
        },
        {
          "name": "status",
          "type": "uint8"
        }
      ],
      "name": "updateShipmentStatus",
      "outputs": [],
      "payable": false,
      "stateMutability": "nonpayable",
      "type": "function"
    }
  ],
  "bytecode": "0x6060604052341561000f57600080fd5b6104488061001e6000396000f300606060405260043610610083576000357c0100000000000000000000000000000000000000000000000000000000900463ffffffff168063155a764614610088578063155ea116146100c15780631e40eb3c146101405780637a570796146101dd578063b2b3e92414610252578063d60c1d5514610330578063e7d5c46a14610381575b600080fd5b341561009357600080fd5b6100bf600480803573ffffffffffffffffffffffffffffffffffffffff169060200190919050506103ea565b005b34156100cc57600080fd5b61011c600480803590602001908201803590602001908080601f016020809104026020016040519081016040528093929190818152602001838380828437820191505050505050919050506103ed565b6040518082600181111561012c57fe5b60ff16815260200191505060405180910390f35b341561014b57600080fd5b61019b600480803590602001908201803590602001908080601f016020809104026020016040519081016040528093929190818152602001838380828437820191505050505050919050506103f4565b604051808273ffffffffffffffffffffffffffffffffffffffff1673ffffffffffffffffffffffffffffffffffffffff16815260200191505060405180910390f35b34156101e857600080fd5b610238600480803590602001908201803590602001908080601f016020809104026020016040519081016040528093929190818152602001838380828437820191505050505050919050506103fe565b604051808215151515815260200191505060405180910390f35b341561025d57600080fd5b61032e600480803590602001908201803590602001908080601f0160208091040260200160405190810160405280939291908181526020018383808284378201915050505050509190803590602001908201803590602001908080601f0160208091040260200160405190810160405280939291908181526020018383808284378201915050505050509190803573ffffffffffffffffffffffffffffffffffffffff1690602001909190803573ffffffffffffffffffffffffffffffffffffffff16906020019091905050610408565b005b341561033b57600080fd5b610367600480803573ffffffffffffffffffffffffffffffffffffffff1690602001909190505061040e565b604051808215151515815260200191505060405180910390f35b341561038c57600080fd5b6103e8600480803590602001908201803590602001908080601f0160208091040260200160405190810160405280939291908181526020018383808284378201915050505050509190803560ff16906020019091905050610418565b005b50565b6000919050565b6000809050919050565b6000809050919050565b50505050565b6000809050919050565b50505600a165627a7a723058203a60b36d14dff01a8ea39c8f8e1d584329aced764c503fb951acc76d5720572b0029",
  "source": "pragma solidity ^0.4.11;\n\ncontract Shippable {\n    \n    enum ShipmentStatus { InTransit, Delivered }\n    struct Shippment {\n        string orderId;\n        string itemId;\n        address from;\n        address to;\n        address shipper;\n        ShipmentStatus status;\n    }\n    \n    mapping(address => bool) registeredShipper;\n    mapping(string => Shippment) shipments;\n\n    modifier onlyRegisteredShipper() {\n        //check if registered shipper\n        _;\n    }\n\n    function isInTransit(string orderId) \n    constant \n    public \n    returns(bool) {\n        //return true check shipment for the order exists, else return false\n        return false;\n    }\n\n    function ship(string orderId, string itemId, address from, address to) \n    onlyRegisteredShipper \n    public {\n        //add to shipments\n    }\n    \n    function updateShipmentStatus(string orderId, uint8 status) \n    onlyRegisteredShipper\n    public {\n        //check shipment for the orderId exists\n        \n        //verify that the function caller is the shipper\n        \n        //verify that the status is valid\n        \n        //update shipment status\n    }\n    \n    function getShipmentStatus(string orderId) \n    constant\n    public\n    returns (ShipmentStatus) {\n        //return shipment status of the order\n    }\n    \n    function getShipper(string orderId) \n    constant\n    public\n    returns (address) {\n        //return the shipper of the order\n        return address(0x0);\n    }\n    \n    function addShipper(address shipper) public {\n        //add to registered shippers\n    }\n    \n    function isShipper(address shipper) \n    constant \n    public \n    returns(bool) {\n        //check if registered shipper\n        return false;\n    }\n}",
  "sourcePath": "/home/ketan/Desktop/shopd/contracts/Shippable.sol",
  "compiler": {
    "name": "solc",
    "version": "0.4.18+commit.9cf6e910.Emscripten.clang"
  },
  "schemaVersion": "1.0.1",
  "updatedAt": "2017-12-16T23:25:41.653Z"
}