{
  "contractName": "ShopD",
  "abi": [
    {
      "constant": false,
      "inputs": [
        {
          "name": "shipper",
          "type": "address"
        }
      ],
      "name": "addShipper",
      "outputs": [],
      "payable": false,
      "stateMutability": "nonpayable",
      "type": "function"
    },
    {
      "constant": true,
      "inputs": [
        {
          "name": "orderId",
          "type": "string"
        }
      ],
      "name": "getShipmentStatus",
      "outputs": [
        {
          "name": "",
          "type": "uint8"
        }
      ],
      "payable": false,
      "stateMutability": "view",
      "type": "function"
    },
    {
      "constant": false,
      "inputs": [
        {
          "name": "orderId",
          "type": "string"
        }
      ],
      "name": "shipOrder",
      "outputs": [],
      "payable": false,
      "stateMutability": "nonpayable",
      "type": "function"
    },
    {
      "constant": true,
      "inputs": [
        {
          "name": "orderId",
          "type": "string"
        }
      ],
      "name": "getShipper",
      "outputs": [
        {
          "name": "",
          "type": "address"
        }
      ],
      "payable": false,
      "stateMutability": "view",
      "type": "function"
    },
    {
      "constant": false,
      "inputs": [
        {
          "name": "orderId",
          "type": "string"
        },
        {
          "name": "itemId",
          "type": "string"
        }
      ],
      "name": "order",
      "outputs": [],
      "payable": true,
      "stateMutability": "payable",
      "type": "function"
    },
    {
      "constant": true,
      "inputs": [
        {
          "name": "orderId",
          "type": "string"
        }
      ],
      "name": "getOrderItemId",
      "outputs": [
        {
          "name": "",
          "type": "string"
        }
      ],
      "payable": false,
      "stateMutability": "view",
      "type": "function"
    },
    {
      "constant": false,
      "inputs": [
        {
          "name": "owner",
          "type": "address"
        },
        {
          "name": "itemId",
          "type": "string"
        },
        {
          "name": "itemName",
          "type": "string"
        },
        {
          "name": "price",
          "type": "uint256"
        }
      ],
      "name": "addToStock",
      "outputs": [
        {
          "name": "",
          "type": "bool"
        }
      ],
      "payable": false,
      "stateMutability": "nonpayable",
      "type": "function"
    },
    {
      "constant": true,
      "inputs": [
        {
          "name": "itemId",
          "type": "string"
        }
      ],
      "name": "getOwner",
      "outputs": [
        {
          "name": "",
          "type": "address"
        }
      ],
      "payable": false,
      "stateMutability": "view",
      "type": "function"
    },
    {
      "constant": false,
      "inputs": [
        {
          "name": "itemId",
          "type": "string"
        },
        {
          "name": "itemName",
          "type": "string"
        },
        {
          "name": "price",
          "type": "uint256"
        }
      ],
      "name": "addItem",
      "outputs": [],
      "payable": false,
      "stateMutability": "nonpayable",
      "type": "function"
    },
    {
      "constant": true,
      "inputs": [
        {
          "name": "orderer",
          "type": "address"
        },
        {
          "name": "itemId",
          "type": "string"
        },
        {
          "name": "payment",
          "type": "uint256"
        }
      ],
      "name": "isBuyable",
      "outputs": [
        {
          "name": "",
          "type": "bool"
        }
      ],
      "payable": false,
      "stateMutability": "view",
      "type": "function"
    },
    {
      "constant": true,
      "inputs": [
        {
          "name": "orderId",
          "type": "string"
        }
      ],
      "name": "isActiveOrder",
      "outputs": [
        {
          "name": "",
          "type": "bool"
        }
      ],
      "payable": false,
      "stateMutability": "view",
      "type": "function"
    },
    {
      "constant": true,
      "inputs": [
        {
          "name": "orderId",
          "type": "string"
        }
      ],
      "name": "isInTransit",
      "outputs": [
        {
          "name": "",
          "type": "bool"
        }
      ],
      "payable": false,
      "stateMutability": "view",
      "type": "function"
    },
    {
      "constant": true,
      "inputs": [],
      "name": "owner",
      "outputs": [
        {
          "name": "",
          "type": "address"
        }
      ],
      "payable": false,
      "stateMutability": "view",
      "type": "function"
    },
    {
      "constant": true,
      "inputs": [
        {
          "name": "orderId",
          "type": "string"
        },
        {
          "name": "addr",
          "type": "address"
        }
      ],
      "name": "isRecipient",
      "outputs": [
        {
          "name": "",
          "type": "bool"
        }
      ],
      "payable": false,
      "stateMutability": "view",
      "type": "function"
    },
    {
      "constant": false,
      "inputs": [
        {
          "name": "orderId",
          "type": "string"
        },
        {
          "name": "itemId",
          "type": "string"
        },
        {
          "name": "from",
          "type": "address"
        },
        {
          "name": "to",
          "type": "address"
        }
      ],
      "name": "ship",
      "outputs": [],
      "payable": false,
      "stateMutability": "nonpayable",
      "type": "function"
    },
    {
      "constant": false,
      "inputs": [
        {
          "name": "orderId",
          "type": "string"
        }
      ],
      "name": "settle",
      "outputs": [],
      "payable": false,
      "stateMutability": "nonpayable",
      "type": "function"
    },
    {
      "constant": false,
      "inputs": [
        {
          "name": "orderId",
          "type": "string"
        },
        {
          "name": "itemId",
          "type": "string"
        },
        {
          "name": "from",
          "type": "address"
        },
        {
          "name": "to",
          "type": "address"
        },
        {
          "name": "amount",
          "type": "uint256"
        }
      ],
      "name": "placeOrder",
      "outputs": [],
      "payable": false,
      "stateMutability": "nonpayable",
      "type": "function"
    },
    {
      "constant": true,
      "inputs": [
        {
          "name": "shipper",
          "type": "address"
        }
      ],
      "name": "isShipper",
      "outputs": [
        {
          "name": "",
          "type": "bool"
        }
      ],
      "payable": false,
      "stateMutability": "view",
      "type": "function"
    },
    {
      "constant": true,
      "inputs": [
        {
          "name": "itemId",
          "type": "string"
        }
      ],
      "name": "isInStock",
      "outputs": [
        {
          "name": "",
          "type": "bool"
        }
      ],
      "payable": false,
      "stateMutability": "view",
      "type": "function"
    },
    {
      "constant": false,
      "inputs": [
        {
          "name": "orderId",
          "type": "string"
        },
        {
          "name": "status",
          "type": "uint8"
        }
      ],
      "name": "updateShipmentStatus",
      "outputs": [],
      "payable": false,
      "stateMutability": "nonpayable",
      "type": "function"
    },
    {
      "constant": true,
      "inputs": [
        {
          "name": "orderId",
          "type": "string"
        }
      ],
      "name": "getOrderFromAndTo",
      "outputs": [
        {
          "name": "from",
          "type": "address"
        },
        {
          "name": "to",
          "type": "address"
        }
      ],
      "payable": false,
      "stateMutability": "view",
      "type": "function"
    },
    {
      "inputs": [],
      "payable": false,
      "stateMutability": "nonpayable",
      "type": "constructor"
    }
  ],
  "bytecode": "0x6060604052341561000f57600080fd5b33600460006101000a81548173ffffffffffffffffffffffffffffffffffffffff021916908373ffffffffffffffffffffffffffffffffffffffff160217905550610f668061005f6000396000f30060606040526004361061011d576000357c0100000000000000000000000000000000000000000000000000000000900463ffffffff168063155a764614610122578063155ea1161461015b578063186d89d9146101da5780631e40eb3c14610237578063322c9d80146102d457806333d4f3f91461036957806336bd993f1461043f5780634aaf4a121461051f57806364432eb8146105bc5780636826be8b1461066557806374261f0c146107025780637a570796146107775780638da5cb5b146107ec578063a1f0282414610841578063b2b3e924146108d5578063baf312eb146109b3578063c380f06814610a10578063d60c1d5514610af7578063da3921dc14610b48578063e7d5c46a14610bbd578063fb84160c14610c26575b600080fd5b341561012d57600080fd5b610159600480803573ffffffffffffffffffffffffffffffffffffffff16906020019091905050610cf6565b005b341561016657600080fd5b6101b6600480803590602001908201803590602001908080601f01602080910402602001604051908101604052809392919081815260200183838082843782019150505050505091905050610d5e565b604051808260018111156101c657fe5b60ff16815260200191505060405180910390f35b34156101e557600080fd5b610235600480803590602001908201803590602001908080601f01602080910402602001604051908101604052809392919081815260200183838082843782019150505050505091905050610d65565b005b341561024257600080fd5b610292600480803590602001908201803590602001908080601f01602080910402602001604051908101604052809392919081815260200183838082843782019150505050505091905050610dc7565b604051808273ffffffffffffffffffffffffffffffffffffffff1673ffffffffffffffffffffffffffffffffffffffff16815260200191505060405180910390f35b610367600480803590602001908201803590602001908080601f0160208091040260200160405190810160405280939291908181526020018383808284378201915050505050509190803590602001908201803590602001908080601f01602080910402602001604051908101604052809392919081815260200183838082843782019150505050505091905050610dd1565b005b341561037457600080fd5b6103c4600480803590602001908201803590602001908080601f01602080910402602001604051908101604052809392919081815260200183838082843782019150505050505091905050610e06565b6040518080602001828103825283818151815260200191508051906020019080838360005b838110156104045780820151818401526020810190506103e9565b50505050905090810190601f1680156104315780820380516001836020036101000a031916815260200191505b509250505060405180910390f35b341561044a57600080fd5b610505600480803573ffffffffffffffffffffffffffffffffffffffff1690602001909190803590602001908201803590602001908080601f0160208091040260200160405190810160405280939291908181526020018383808284378201915050505050509190803590602001908201803590602001908080601f01602080910402602001604051908101604052809392919081815260200183838082843782019150505050505091908035906020019091905050610e13565b604051808215151515815260200191505060405180910390f35b341561052a57600080fd5b61057a600480803590602001908201803590602001908080601f01602080910402602001604051908101604052809392919081815260200183838082843782019150505050505091905050610e1d565b604051808273ffffffffffffffffffffffffffffffffffffffff1673ffffffffffffffffffffffffffffffffffffffff16815260200191505060405180910390f35b34156105c757600080fd5b610663600480803590602001908201803590602001908080601f0160208091040260200160405190810160405280939291908181526020018383808284378201915050505050509190803590602001908201803590602001908080601f01602080910402602001604051908101604052809392919081815260200183838082843782019150505050505091908035906020019091905050610e27565b005b341561067057600080fd5b6106e8600480803573ffffffffffffffffffffffffffffffffffffffff1690602001909190803590602001908201803590602001908080601f01602080910402602001604051908101604052809392919081815260200183838082843782019150505050505091908035906020019091905050610e4e565b604051808215151515815260200191505060405180910390f35b341561070d57600080fd5b61075d600480803590602001908201803590602001908080601f01602080910402602001604051908101604052809392919081815260200183838082843782019150505050505091905050610e5a565b604051808215151515815260200191505060405180910390f35b341561078257600080fd5b6107d2600480803590602001908201803590602001908080601f01602080910402602001604051908101604052809392919081815260200183838082843782019150505050505091905050610e64565b604051808215151515815260200191505060405180910390f35b34156107f757600080fd5b6107ff610e6e565b604051808273ffffffffffffffffffffffffffffffffffffffff1673ffffffffffffffffffffffffffffffffffffffff16815260200191505060405180910390f35b341561084c57600080fd5b6108bb600480803590602001908201803590602001908080601f0160208091040260200160405190810160405280939291908181526020018383808284378201915050505050509190803573ffffffffffffffffffffffffffffffffffffffff16906020019091905050610e94565b604051808215151515815260200191505060405180910390f35b34156108e057600080fd5b6109b1600480803590602001908201803590602001908080601f0160208091040260200160405190810160405280939291908181526020018383808284378201915050505050509190803590602001908201803590602001908080601f0160208091040260200160405190810160405280939291908181526020018383808284378201915050505050509190803573ffffffffffffffffffffffffffffffffffffffff1690602001909190803573ffffffffffffffffffffffffffffffffffffffff16906020019091905050610e9f565b005b34156109be57600080fd5b610a0e600480803590602001908201803590602001908080601f01602080910402602001604051908101604052809392919081815260200183838082843782019150505050505091905050610ea5565b005b3415610a1b57600080fd5b610af5600480803590602001908201803590602001908080601f0160208091040260200160405190810160405280939291908181526020018383808284378201915050505050509190803590602001908201803590602001908080601f0160208091040260200160405190810160405280939291908181526020018383808284378201915050505050509190803573ffffffffffffffffffffffffffffffffffffffff1690602001909190803573ffffffffffffffffffffffffffffffffffffffff16906020019091908035906020019091905050610ef8565b005b3415610b0257600080fd5b610b2e600480803573ffffffffffffffffffffffffffffffffffffffff16906020019091905050610eff565b604051808215151515815260200191505060405180910390f35b3415610b5357600080fd5b610ba3600480803590602001908201803590602001908080601f01602080910402602001604051908101604052809392919081815260200183838082843782019150505050505091905050610f09565b604051808215151515815260200191505060405180910390f35b3415610bc857600080fd5b610c24600480803590602001908201803590602001908080601f0160208091040260200160405190810160405280939291908181526020018383808284378201915050505050509190803560ff16906020019091905050610f10565b005b3415610c3157600080fd5b610c81600480803590602001908201803590602001908080601f01602080910402602001604051908101604052809392919081815260200183838082843782019150505050505091905050610f14565b604051808373ffffffffffffffffffffffffffffffffffffffff1673ffffffffffffffffffffffffffffffffffffffff1681526020018273ffffffffffffffffffffffffffffffffffffffff1673ffffffffffffffffffffffffffffffffffffffff1681526020019250505060405180910390f35b600460009054906101000a900473ffffffffffffffffffffffffffffffffffffffff1673ffffffffffffffffffffffffffffffffffffffff163373ffffffffffffffffffffffffffffffffffffffff16141515610d5257600080fd5b610d5b81610f1c565b50565b6000919050565b610d6d610f26565b600080610d7984610e5a565b1515610d8457600080fd5b610d8d84610e64565b151515610d9957600080fd5b610da284610e06565b9250610dad84610f14565b8092508193505050610dc184848484610e9f565b50505050565b6000809050919050565b6000610dde338334610e4e565b1515610de957600080fd5b610df282610e1d565b9050610e018383833334610ef8565b505050565b610e0e610f26565b919050565b6000949350505050565b6000809050919050565b610e3083610f09565b151515610e3c57600080fd5b610e4833848484610e13565b50505050565b60008090509392505050565b6000809050919050565b6000809050919050565b600460009054906101000a900473ffffffffffffffffffffffffffffffffffffffff1681565b600080905092915050565b50505050565b610ead610f26565b610eb682610e5a565b1515610ec157600080fd5b610ecb8233610e94565b1515610ed657600080fd5b610edf82610e06565b9050610eea82610f1f565b610ef48133610f22565b5050565b5050505050565b6000809050919050565b6000919050565b5050565b600080915091565b50565b50565b5050565b6020604051908101604052806000815250905600a165627a7a723058200228de527ae4f4cfadbaec9f970f9eb1a0a36eeb7311f169636f4630f3540ec50029",
  "source": "pragma solidity ^0.4.11;\n\nimport './Stockable.sol';\nimport './Orderable.sol';\nimport './Shippable.sol';\n\ncontract ShopD is Stockable, Orderable, Shippable {\n\n    address public owner;\n\n    function ShopD() public {\n        owner = msg.sender;\n    }\n\n    modifier onlyOwner() {\n        require(msg.sender == owner);\n        _;\n    }\n\n    function addItem(string itemId, string itemName, uint price) public {\n        require(!super.isInStock(itemId));\n        \n        super.addToStock(msg.sender, itemId, itemName, price);\n    }\n    \n    function order(string orderId, string itemId) public payable {\n        require(super.isBuyable(msg.sender, itemId, msg.value));\n        \n        address itemOwner = super.getOwner(itemId);\n        super.placeOrder(orderId, itemId, itemOwner, msg.sender, msg.value);\n    }\n\n    function shipOrder(string orderId) public {\n        require(super.isActiveOrder(orderId));\n        require(!super.isInTransit(orderId));\n        var itemId = super.getOrderItemId(orderId);\n\n        address from;\n        address to;\n        (from, to) = super.getOrderFromAndTo(orderId);\n        super.ship(orderId, itemId, from, to);\n    }\n    \n    function settle(string orderId) public {\n        require(super.isActiveOrder(orderId));\n        require(super.isRecipient(orderId, msg.sender));\n        var itemId = super.getOrderItemId(orderId);\n\n        super.settleOrder(orderId);\n        super.changeOwner(itemId, msg.sender);\n    }\n\n    function addShipper(address shipper) \n    onlyOwner \n    public {\n        super.addShipper(shipper);\n    }\n}",
  "sourcePath": "/home/ketan/Desktop/shopd/contracts/ShopD.sol",
  "compiler": {
    "name": "solc",
    "version": "0.4.18+commit.9cf6e910.Emscripten.clang"
  },
  "schemaVersion": "1.0.1",
  "updatedAt": "2017-12-16T23:25:41.946Z"
}