{
  "contractName": "Stockable",
  "abi": [
    {
      "constant": false,
      "inputs": [
        {
          "name": "owner",
          "type": "address"
        },
        {
          "name": "itemId",
          "type": "string"
        },
        {
          "name": "itemName",
          "type": "string"
        },
        {
          "name": "price",
          "type": "uint256"
        }
      ],
      "name": "addToStock",
      "outputs": [
        {
          "name": "",
          "type": "bool"
        }
      ],
      "payable": false,
      "stateMutability": "nonpayable",
      "type": "function"
    },
    {
      "constant": true,
      "inputs": [
        {
          "name": "itemId",
          "type": "string"
        }
      ],
      "name": "getOwner",
      "outputs": [
        {
          "name": "",
          "type": "address"
        }
      ],
      "payable": false,
      "stateMutability": "view",
      "type": "function"
    },
    {
      "constant": true,
      "inputs": [
        {
          "name": "orderer",
          "type": "address"
        },
        {
          "name": "itemId",
          "type": "string"
        },
        {
          "name": "payment",
          "type": "uint256"
        }
      ],
      "name": "isBuyable",
      "outputs": [
        {
          "name": "",
          "type": "bool"
        }
      ],
      "payable": false,
      "stateMutability": "view",
      "type": "function"
    },
    {
      "constant": true,
      "inputs": [
        {
          "name": "itemId",
          "type": "string"
        }
      ],
      "name": "isInStock",
      "outputs": [
        {
          "name": "",
          "type": "bool"
        }
      ],
      "payable": false,
      "stateMutability": "view",
      "type": "function"
    }
  ],
  "bytecode": "0x6060604052341561000f57600080fd5b6103498061001e6000396000f300606060405260043610610062576000357c0100000000000000000000000000000000000000000000000000000000900463ffffffff16806336bd993f146100675780634aaf4a12146101475780636826be8b146101e4578063da3921dc14610281575b600080fd5b341561007257600080fd5b61012d600480803573ffffffffffffffffffffffffffffffffffffffff1690602001909190803590602001908201803590602001908080601f0160208091040260200160405190810160405280939291908181526020018383808284378201915050505050509190803590602001908201803590602001908080601f016020809104026020016040519081016040528093929190818152602001838380828437820191505050505050919080359060200190919050506102f6565b604051808215151515815260200191505060405180910390f35b341561015257600080fd5b6101a2600480803590602001908201803590602001908080601f01602080910402602001604051908101604052809392919081815260200183838082843782019150505050505091905050610300565b604051808273ffffffffffffffffffffffffffffffffffffffff1673ffffffffffffffffffffffffffffffffffffffff16815260200191505060405180910390f35b34156101ef57600080fd5b610267600480803573ffffffffffffffffffffffffffffffffffffffff1690602001909190803590602001908201803590602001908080601f0160208091040260200160405190810160405280939291908181526020018383808284378201915050505050509190803590602001909190505061030a565b604051808215151515815260200191505060405180910390f35b341561028c57600080fd5b6102dc600480803590602001908201803590602001908080601f01602080910402602001604051908101604052809392919081815260200183838082843782019150505050505091905050610316565b604051808215151515815260200191505060405180910390f35b6000949350505050565b6000809050919050565b60008090509392505050565b60009190505600a165627a7a72305820feeb77db01069dae259b48f91fa98856ed9a33deffa5887179a3c73cff0b4e7a0029",
  "source": "pragma solidity ^0.4.11;\n\ncontract Stockable {\n\n    enum ItemStatus { ForSale, InUse }\n    \n    struct Item {\n        string itemId;\n        string itemName;\n        uint price;\n        address owner;\n        ItemStatus status;\n    }\n    \n    mapping(string => Item) stock;\n    \n    function isInStock(string itemId) constant public returns(bool) {\n        //return true check the itemid is in stock else return false\n    }\n    \n    function addToStock(address owner, string itemId, string itemName, uint price) public returns(bool) {\n        //add item to stock\n    }\n    \n    function isBuyable(address orderer, string itemId, uint payment) constant public returns (bool){\n        //return false if item is not in stock (use isInStock function)\n\n        //return false if orderer is the same as item owner\n        \n        //return false if item status is not ForSale\n        \n        //return false if item price is more than payment\n    \n        return false;\n    }\n    \n    function getOwner(string itemId) constant public returns (address) {\n        //return item owner\n        return address(0x0);\n    }\n    \n    function changeOwner(string itemId, address newOwner) internal {\n        //change item owner to newOwner\n        \n        //change item status to InUse\n        \n    }\n}",
  "sourcePath": "/home/ketan/Desktop/shopd/contracts/Stockable.sol",
  "compiler": {
    "name": "solc",
    "version": "0.4.18+commit.9cf6e910.Emscripten.clang"
  },
  "schemaVersion": "1.0.1",
  "updatedAt": "2017-12-16T23:25:41.654Z"
}